S012000044656275675C66617435312E736D38C3
S123808006060C0C0C0A0A0505050102040810202010080402010103070F1F3F3E3C3830B1
S11D80A020002030383C3E3F1F0F0703010001030206040C0818103020216B
S12380D1AE03FF9490CE80BAAE80BCF62720A5602717BF04EE03BF07BE04EE0190F6F75C41
S12380F1905C90B30726F5BE041C000520DDAE00002002F75CA3000A26F9AE010F2002F774
S12381115CA3011426F9CD829C20FECE01121C0001CF01129CCE0112C3010C2F085FCF017B
S1238131123501010B81725D010B2603CC81DF725C0110C6010E5F97D68080C10110222889
S1238151725F0110725C010FC6010E5F97D68085C1010F2213725F010F725C010EC6010E0B
S1238171A1052504725F010E725D010E260DC601105F97D6808AC70111204EC6010EA101BF
S1238191260DC601105F97D68090C70111203AC6010EA102260DC601105F97D68096C70185
S12381B1112026C6010EA103260DC601105F97D680A2C701112012C6010EA104260BC60165
S12381D1105F97D680AEC70111550111500F725F010B81C65011AAFFC75011C65012AAFFBA
S12381F1C75012C65013A400C750138135075347357B53487210534335855340813501018B
S123821100725C0106C60106A10A2575725F010635010101725C0107C60107A10A25087264
S12382315F010735010102725C0108C60108A1142513725F0108350101033D032604A601D1
S123825120014FB703725C0109C60109A1322513725F0109350101043D022604A6012001E5
S12382714FB702725C010AC6010AA1642513725F010A350101053D012604A60120014FB7AC
S12382910172115344807211525580725F50C6CD81E435AE506435565064CD81FD9A725DE1
S12382B101002707725F0100CD811C725D01012707725F0101CD8137725D01022704725F19
S12382D10102725D01032704725F0103725D01042704725F0104725D010527C2725F010549
S10682F120BC802A
S11280C200000000000000000000000000640344
S1238000820080D1820082F3820082F3820082F3820082F3820082F3820082F3820082F3C8
S1238020820082F3820082F3820082F3820082F3820082F382008297820082F3820082F3E0
S1238040820082F3820082F3820082F3820082F3820082F3820082F3820082F3820082F364
S1238060820082F38200820E820082F3820082F3820082F3820082F3820082F3820082F329
S10B80BA80C264010080D100C2
S903FFFFFE
